{
  "_format": "hh-sol-artifact-1",
  "contractName": "NFTMarketplace",
  "sourceName": "contracts/NftMarketplace.sol",
  "abi": [
    {
      "inputs": [],
      "stateMutability": "nonpayable",
      "type": "constructor"
    },
    {
      "inputs": [
        {
          "internalType": "address",
          "name": "sender",
          "type": "address"
        },
        {
          "internalType": "uint256",
          "name": "tokenId",
          "type": "uint256"
        },
        {
          "internalType": "address",
          "name": "owner",
          "type": "address"
        }
      ],
      "name": "ERC721IncorrectOwner",
      "type": "error"
    },
    {
      "inputs": [
        {
          "internalType": "address",
          "name": "operator",
          "type": "address"
        },
        {
          "internalType": "uint256",
          "name": "tokenId",
          "type": "uint256"
        }
      ],
      "name": "ERC721InsufficientApproval",
      "type": "error"
    },
    {
      "inputs": [
        {
          "internalType": "address",
          "name": "approver",
          "type": "address"
        }
      ],
      "name": "ERC721InvalidApprover",
      "type": "error"
    },
    {
      "inputs": [
        {
          "internalType": "address",
          "name": "operator",
          "type": "address"
        }
      ],
      "name": "ERC721InvalidOperator",
      "type": "error"
    },
    {
      "inputs": [
        {
          "internalType": "address",
          "name": "owner",
          "type": "address"
        }
      ],
      "name": "ERC721InvalidOwner",
      "type": "error"
    },
    {
      "inputs": [
        {
          "internalType": "address",
          "name": "receiver",
          "type": "address"
        }
      ],
      "name": "ERC721InvalidReceiver",
      "type": "error"
    },
    {
      "inputs": [
        {
          "internalType": "address",
          "name": "sender",
          "type": "address"
        }
      ],
      "name": "ERC721InvalidSender",
      "type": "error"
    },
    {
      "inputs": [
        {
          "internalType": "uint256",
          "name": "tokenId",
          "type": "uint256"
        }
      ],
      "name": "ERC721NonexistentToken",
      "type": "error"
    },
    {
      "anonymous": false,
      "inputs": [
        {
          "indexed": true,
          "internalType": "address",
          "name": "owner",
          "type": "address"
        },
        {
          "indexed": true,
          "internalType": "address",
          "name": "approved",
          "type": "address"
        },
        {
          "indexed": true,
          "internalType": "uint256",
          "name": "tokenId",
          "type": "uint256"
        }
      ],
      "name": "Approval",
      "type": "event"
    },
    {
      "anonymous": false,
      "inputs": [
        {
          "indexed": true,
          "internalType": "address",
          "name": "owner",
          "type": "address"
        },
        {
          "indexed": true,
          "internalType": "address",
          "name": "operator",
          "type": "address"
        },
        {
          "indexed": false,
          "internalType": "bool",
          "name": "approved",
          "type": "bool"
        }
      ],
      "name": "ApprovalForAll",
      "type": "event"
    },
    {
      "anonymous": false,
      "inputs": [
        {
          "indexed": false,
          "internalType": "uint256",
          "name": "_fromTokenId",
          "type": "uint256"
        },
        {
          "indexed": false,
          "internalType": "uint256",
          "name": "_toTokenId",
          "type": "uint256"
        }
      ],
      "name": "BatchMetadataUpdate",
      "type": "event"
    },
    {
      "anonymous": false,
      "inputs": [
        {
          "indexed": true,
          "internalType": "uint256",
          "name": "tokenId",
          "type": "uint256"
        },
        {
          "indexed": false,
          "internalType": "address",
          "name": "seller",
          "type": "address"
        },
        {
          "indexed": false,
          "internalType": "address",
          "name": "owner",
          "type": "address"
        },
        {
          "indexed": false,
          "internalType": "uint256",
          "name": "price",
          "type": "uint256"
        },
        {
          "indexed": false,
          "internalType": "bool",
          "name": "sold",
          "type": "bool"
        }
      ],
      "name": "MarketItemCreated",
      "type": "event"
    },
    {
      "anonymous": false,
      "inputs": [
        {
          "indexed": true,
          "internalType": "uint256",
          "name": "tokenId",
          "type": "uint256"
        },
        {
          "indexed": false,
          "internalType": "address",
          "name": "seller",
          "type": "address"
        },
        {
          "indexed": false,
          "internalType": "address",
          "name": "owner",
          "type": "address"
        },
        {
          "indexed": false,
          "internalType": "uint256",
          "name": "price",
          "type": "uint256"
        }
      ],
      "name": "MarketItemRelisted",
      "type": "event"
    },
    {
      "anonymous": false,
      "inputs": [
        {
          "indexed": true,
          "internalType": "uint256",
          "name": "tokenId",
          "type": "uint256"
        },
        {
          "indexed": false,
          "internalType": "address",
          "name": "buyer",
          "type": "address"
        },
        {
          "indexed": false,
          "internalType": "uint256",
          "name": "price",
          "type": "uint256"
        },
        {
          "indexed": false,
          "internalType": "address",
          "name": "seller",
          "type": "address"
        },
        {
          "indexed": false,
          "internalType": "address",
          "name": "owner",
          "type": "address"
        }
      ],
      "name": "MarketItemSold",
      "type": "event"
    },
    {
      "anonymous": false,
      "inputs": [
        {
          "indexed": false,
          "internalType": "uint256",
          "name": "_tokenId",
          "type": "uint256"
        }
      ],
      "name": "MetadataUpdate",
      "type": "event"
    },
    {
      "anonymous": false,
      "inputs": [
        {
          "indexed": true,
          "internalType": "address",
          "name": "from",
          "type": "address"
        },
        {
          "indexed": true,
          "internalType": "address",
          "name": "to",
          "type": "address"
        },
        {
          "indexed": true,
          "internalType": "uint256",
          "name": "tokenId",
          "type": "uint256"
        }
      ],
      "name": "Transfer",
      "type": "event"
    },
    {
      "inputs": [
        {
          "internalType": "address",
          "name": "to",
          "type": "address"
        },
        {
          "internalType": "uint256",
          "name": "tokenId",
          "type": "uint256"
        }
      ],
      "name": "approve",
      "outputs": [],
      "stateMutability": "nonpayable",
      "type": "function"
    },
    {
      "inputs": [
        {
          "internalType": "address",
          "name": "owner",
          "type": "address"
        }
      ],
      "name": "balanceOf",
      "outputs": [
        {
          "internalType": "uint256",
          "name": "",
          "type": "uint256"
        }
      ],
      "stateMutability": "view",
      "type": "function"
    },
    {
      "inputs": [
        {
          "internalType": "uint256",
          "name": "tokenId",
          "type": "uint256"
        }
      ],
      "name": "createMarketSale",
      "outputs": [],
      "stateMutability": "payable",
      "type": "function"
    },
    {
      "inputs": [
        {
          "internalType": "string",
          "name": "tokenURI",
          "type": "string"
        },
        {
          "internalType": "uint256",
          "name": "price",
          "type": "uint256"
        }
      ],
      "name": "createToken",
      "outputs": [
        {
          "internalType": "uint256",
          "name": "",
          "type": "uint256"
        }
      ],
      "stateMutability": "payable",
      "type": "function"
    },
    {
      "inputs": [],
      "name": "fetchAllMarketItems",
      "outputs": [
        {
          "components": [
            {
              "internalType": "uint256",
              "name": "tokenId",
              "type": "uint256"
            },
            {
              "internalType": "address payable",
              "name": "seller",
              "type": "address"
            },
            {
              "internalType": "address payable",
              "name": "owner",
              "type": "address"
            },
            {
              "internalType": "uint256",
              "name": "price",
              "type": "uint256"
            },
            {
              "internalType": "bool",
              "name": "sold",
              "type": "bool"
            }
          ],
          "internalType": "struct NFTMarketplace.MarketItem[]",
          "name": "",
          "type": "tuple[]"
        }
      ],
      "stateMutability": "view",
      "type": "function"
    },
    {
      "inputs": [],
      "name": "fetchItemsListed",
      "outputs": [
        {
          "components": [
            {
              "internalType": "uint256",
              "name": "tokenId",
              "type": "uint256"
            },
            {
              "internalType": "address payable",
              "name": "seller",
              "type": "address"
            },
            {
              "internalType": "address payable",
              "name": "owner",
              "type": "address"
            },
            {
              "internalType": "uint256",
              "name": "price",
              "type": "uint256"
            },
            {
              "internalType": "bool",
              "name": "sold",
              "type": "bool"
            }
          ],
          "internalType": "struct NFTMarketplace.MarketItem[]",
          "name": "",
          "type": "tuple[]"
        }
      ],
      "stateMutability": "view",
      "type": "function"
    },
    {
      "inputs": [],
      "name": "fetchMarketItems",
      "outputs": [
        {
          "components": [
            {
              "internalType": "uint256",
              "name": "tokenId",
              "type": "uint256"
            },
            {
              "internalType": "address payable",
              "name": "seller",
              "type": "address"
            },
            {
              "internalType": "address payable",
              "name": "owner",
              "type": "address"
            },
            {
              "internalType": "uint256",
              "name": "price",
              "type": "uint256"
            },
            {
              "internalType": "bool",
              "name": "sold",
              "type": "bool"
            }
          ],
          "internalType": "struct NFTMarketplace.MarketItem[]",
          "name": "",
          "type": "tuple[]"
        }
      ],
      "stateMutability": "view",
      "type": "function"
    },
    {
      "inputs": [],
      "name": "fetchMyNFTs",
      "outputs": [
        {
          "components": [
            {
              "internalType": "uint256",
              "name": "tokenId",
              "type": "uint256"
            },
            {
              "internalType": "address payable",
              "name": "seller",
              "type": "address"
            },
            {
              "internalType": "address payable",
              "name": "owner",
              "type": "address"
            },
            {
              "internalType": "uint256",
              "name": "price",
              "type": "uint256"
            },
            {
              "internalType": "bool",
              "name": "sold",
              "type": "bool"
            }
          ],
          "internalType": "struct NFTMarketplace.MarketItem[]",
          "name": "",
          "type": "tuple[]"
        }
      ],
      "stateMutability": "view",
      "type": "function"
    },
    {
      "inputs": [
        {
          "internalType": "uint256",
          "name": "tokenId",
          "type": "uint256"
        }
      ],
      "name": "getApproved",
      "outputs": [
        {
          "internalType": "address",
          "name": "",
          "type": "address"
        }
      ],
      "stateMutability": "view",
      "type": "function"
    },
    {
      "inputs": [],
      "name": "getListingPrice",
      "outputs": [
        {
          "internalType": "uint256",
          "name": "",
          "type": "uint256"
        }
      ],
      "stateMutability": "view",
      "type": "function"
    },
    {
      "inputs": [
        {
          "internalType": "uint256",
          "name": "",
          "type": "uint256"
        }
      ],
      "name": "idToMarketItem",
      "outputs": [
        {
          "internalType": "uint256",
          "name": "tokenId",
          "type": "uint256"
        },
        {
          "internalType": "address payable",
          "name": "seller",
          "type": "address"
        },
        {
          "internalType": "address payable",
          "name": "owner",
          "type": "address"
        },
        {
          "internalType": "uint256",
          "name": "price",
          "type": "uint256"
        },
        {
          "internalType": "bool",
          "name": "sold",
          "type": "bool"
        }
      ],
      "stateMutability": "view",
      "type": "function"
    },
    {
      "inputs": [
        {
          "internalType": "address",
          "name": "owner",
          "type": "address"
        },
        {
          "internalType": "address",
          "name": "operator",
          "type": "address"
        }
      ],
      "name": "isApprovedForAll",
      "outputs": [
        {
          "internalType": "bool",
          "name": "",
          "type": "bool"
        }
      ],
      "stateMutability": "view",
      "type": "function"
    },
    {
      "inputs": [],
      "name": "name",
      "outputs": [
        {
          "internalType": "string",
          "name": "",
          "type": "string"
        }
      ],
      "stateMutability": "view",
      "type": "function"
    },
    {
      "inputs": [],
      "name": "owner",
      "outputs": [
        {
          "internalType": "address payable",
          "name": "",
          "type": "address"
        }
      ],
      "stateMutability": "view",
      "type": "function"
    },
    {
      "inputs": [
        {
          "internalType": "uint256",
          "name": "tokenId",
          "type": "uint256"
        }
      ],
      "name": "ownerOf",
      "outputs": [
        {
          "internalType": "address",
          "name": "",
          "type": "address"
        }
      ],
      "stateMutability": "view",
      "type": "function"
    },
    {
      "inputs": [
        {
          "internalType": "uint256",
          "name": "tokenId",
          "type": "uint256"
        },
        {
          "internalType": "uint256",
          "name": "price",
          "type": "uint256"
        }
      ],
      "name": "resellToken",
      "outputs": [],
      "stateMutability": "payable",
      "type": "function"
    },
    {
      "inputs": [
        {
          "internalType": "address",
          "name": "from",
          "type": "address"
        },
        {
          "internalType": "address",
          "name": "to",
          "type": "address"
        },
        {
          "internalType": "uint256",
          "name": "tokenId",
          "type": "uint256"
        }
      ],
      "name": "safeTransferFrom",
      "outputs": [],
      "stateMutability": "nonpayable",
      "type": "function"
    },
    {
      "inputs": [
        {
          "internalType": "address",
          "name": "from",
          "type": "address"
        },
        {
          "internalType": "address",
          "name": "to",
          "type": "address"
        },
        {
          "internalType": "uint256",
          "name": "tokenId",
          "type": "uint256"
        },
        {
          "internalType": "bytes",
          "name": "data",
          "type": "bytes"
        }
      ],
      "name": "safeTransferFrom",
      "outputs": [],
      "stateMutability": "nonpayable",
      "type": "function"
    },
    {
      "inputs": [
        {
          "internalType": "address",
          "name": "operator",
          "type": "address"
        },
        {
          "internalType": "bool",
          "name": "approved",
          "type": "bool"
        }
      ],
      "name": "setApprovalForAll",
      "outputs": [],
      "stateMutability": "nonpayable",
      "type": "function"
    },
    {
      "inputs": [
        {
          "internalType": "bytes4",
          "name": "interfaceId",
          "type": "bytes4"
        }
      ],
      "name": "supportsInterface",
      "outputs": [
        {
          "internalType": "bool",
          "name": "",
          "type": "bool"
        }
      ],
      "stateMutability": "view",
      "type": "function"
    },
    {
      "inputs": [],
      "name": "symbol",
      "outputs": [
        {
          "internalType": "string",
          "name": "",
          "type": "string"
        }
      ],
      "stateMutability": "view",
      "type": "function"
    },
    {
      "inputs": [
        {
          "internalType": "uint256",
          "name": "tokenId",
          "type": "uint256"
        }
      ],
      "name": "tokenURI",
      "outputs": [
        {
          "internalType": "string",
          "name": "",
          "type": "string"
        }
      ],
      "stateMutability": "view",
      "type": "function"
    },
    {
      "inputs": [
        {
          "internalType": "address",
          "name": "from",
          "type": "address"
        },
        {
          "internalType": "address",
          "name": "to",
          "type": "address"
        },
        {
          "internalType": "uint256",
          "name": "tokenId",
          "type": "uint256"
        }
      ],
      "name": "transferFrom",
      "outputs": [],
      "stateMutability": "nonpayable",
      "type": "function"
    },
    {
      "inputs": [
        {
          "internalType": "uint256",
          "name": "_listingPrice",
          "type": "uint256"
        }
      ],
      "name": "updateListingPrice",
      "outputs": [],
      "stateMutability": "payable",
      "type": "function"
    }
  ],
  "bytecode": "0x60806040526608e1bc9bf0400060095534801561001b57600080fd5b506040518060400160405280600c81526020017f546f70696120546f6b656e7300000000000000000000000000000000000000008152506040518060400160405280600581526020017f544f50494100000000000000000000000000000000000000000000000000000081525081600090816100979190610340565b5080600190816100a79190610340565b50505033600a60006101000a81548173ffffffffffffffffffffffffffffffffffffffff021916908373ffffffffffffffffffffffffffffffffffffffff160217905550610412565b600081519050919050565b7f4e487b7100000000000000000000000000000000000000000000000000000000600052604160045260246000fd5b7f4e487b7100000000000000000000000000000000000000000000000000000000600052602260045260246000fd5b6000600282049050600182168061017157607f821691505b6020821081036101845761018361012a565b5b50919050565b60008190508160005260206000209050919050565b60006020601f8301049050919050565b600082821b905092915050565b6000600883026101ec7fffffffffffffffffffffffffffffffffffffffffffffffffffffffffffffffff826101af565b6101f686836101af565b95508019841693508086168417925050509392505050565b6000819050919050565b6000819050919050565b600061023d6102386102338461020e565b610218565b61020e565b9050919050565b6000819050919050565b61025783610222565b61026b61026382610244565b8484546101bc565b825550505050565b600090565b610280610273565b61028b81848461024e565b505050565b5b818110156102af576102a4600082610278565b600181019050610291565b5050565b601f8211156102f4576102c58161018a565b6102ce8461019f565b810160208510156102dd578190505b6102f16102e98561019f565b830182610290565b50505b505050565b600082821c905092915050565b6000610317600019846008026102f9565b1980831691505092915050565b60006103308383610306565b9150826002028217905092915050565b610349826100f0565b67ffffffffffffffff811115610362576103616100fb565b5b61036c8254610159565b6103778282856102b3565b600060209050601f8311600181146103aa5760008415610398578287015190505b6103a28582610324565b86555061040a565b601f1984166103b88661018a565b60005b828110156103e0578489015182556001820191506020850194506020810190506103bb565b868310156103fd57848901516103f9601f891682610306565b8355505b6001600288020188555050505b505050505050565b614126806104216000396000f3fe60806040526004361061014b5760003560e01c806372b3b620116100b6578063be9af5361161006f578063be9af5361461048a578063c87b56dd146104a6578063dfb6452b146104e3578063e219fc751461050e578063e61a70c01461052a578063e985e9c51461056b5761014b565b806372b3b620146103965780638da5cb5b146103c657806395d89b41146103f1578063a22cb4651461041c578063ae677aa314610445578063b88d4fde146104615761014b565b8063202e374011610108578063202e37401461027457806323b872dd1461029f57806342842e0e146102c857806345f8fa80146102f15780636352211e1461031c57806370a08231146103595761014b565b806301ffc9a71461015057806306fdde031461018d578063081812fc146101b8578063095ea7b3146101f55780630f08efe01461021e57806312e8558514610249575b600080fd5b34801561015c57600080fd5b5061017760048036038101906101729190612ebf565b6105a8565b6040516101849190612f07565b60405180910390f35b34801561019957600080fd5b506101a2610609565b6040516101af9190612fb2565b60405180910390f35b3480156101c457600080fd5b506101df60048036038101906101da919061300a565b61069b565b6040516101ec9190613078565b60405180910390f35b34801561020157600080fd5b5061021c600480360381019061021791906130bf565b6106b7565b005b34801561022a57600080fd5b506102336106cd565b6040516102409190613255565b60405180910390f35b34801561025557600080fd5b5061025e61091a565b60405161026b9190613286565b60405180910390f35b34801561028057600080fd5b50610289610924565b6040516102969190613255565b60405180910390f35b3480156102ab57600080fd5b506102c660048036038101906102c191906132a1565b610bfd565b005b3480156102d457600080fd5b506102ef60048036038101906102ea91906132a1565b610cff565b005b3480156102fd57600080fd5b50610306610d1f565b6040516103139190613255565b60405180910390f35b34801561032857600080fd5b50610343600480360381019061033e919061300a565b610ff8565b6040516103509190613078565b60405180910390f35b34801561036557600080fd5b50610380600480360381019061037b91906132f4565b61100a565b60405161038d9190613286565b60405180910390f35b6103b060048036038101906103ab9190613456565b6110c4565b6040516103bd9190613286565b60405180910390f35b3480156103d257600080fd5b506103db61110d565b6040516103e891906134c1565b60405180910390f35b3480156103fd57600080fd5b50610406611133565b6040516104139190612fb2565b60405180910390f35b34801561042857600080fd5b50610443600480360381019061043e9190613508565b6111c5565b005b61045f600480360381019061045a919061300a565b6111db565b005b34801561046d57600080fd5b50610488600480360381019061048391906135e9565b611275565b005b6104a4600480360381019061049f919061300a565b61129a565b005b3480156104b257600080fd5b506104cd60048036038101906104c8919061300a565b61158a565b6040516104da9190612fb2565b60405180910390f35b3480156104ef57600080fd5b506104f861169d565b6040516105059190613255565b60405180910390f35b6105286004803603810190610523919061366c565b61184e565b005b34801561053657600080fd5b50610551600480360381019061054c919061300a565b611a8d565b6040516105629594939291906136ac565b60405180910390f35b34801561057757600080fd5b50610592600480360381019061058d91906136ff565b611b10565b60405161059f9190612f07565b60405180910390f35b6000634906490660e01b7bffffffffffffffffffffffffffffffffffffffffffffffffffffffff1916827bffffffffffffffffffffffffffffffffffffffffffffffffffffffff19161480610602575061060182611ba4565b5b9050919050565b6060600080546106189061376e565b80601f01602080910402602001604051908101604052809291908181526020018280546106449061376e565b80156106915780601f1061066657610100808354040283529160200191610691565b820191906000526020600020905b81548152906001019060200180831161067457829003601f168201915b5050505050905090565b60006106a682611c86565b506106b082611d0e565b9050919050565b6106c982826106c4611d4b565b611d53565b5050565b60606000600754905060006008546007546106e891906137ce565b90506000808267ffffffffffffffff8111156107075761070661332b565b5b60405190808252806020026020018201604052801561074057816020015b61072d612df6565b8152602001906001900390816107255790505b50905060005b8481101561090f573073ffffffffffffffffffffffffffffffffffffffff16600b60006001846107769190613802565b815260200190815260200160002060020160009054906101000a900473ffffffffffffffffffffffffffffffffffffffff1673ffffffffffffffffffffffffffffffffffffffff16036109025760006001826107d29190613802565b90506000600b60008381526020019081526020016000209050806040518060a0016040529081600082015481526020016001820160009054906101000a900473ffffffffffffffffffffffffffffffffffffffff1673ffffffffffffffffffffffffffffffffffffffff1673ffffffffffffffffffffffffffffffffffffffff1681526020016002820160009054906101000a900473ffffffffffffffffffffffffffffffffffffffff1673ffffffffffffffffffffffffffffffffffffffff1673ffffffffffffffffffffffffffffffffffffffff168152602001600382015481526020016004820160009054906101000a900460ff1615151515815250508486815181106108e5576108e4613836565b5b60200260200101819052506001856108fd9190613802565b945050505b8080600101915050610746565b508094505050505090565b6000600954905090565b60606000600754905060008060005b838110156109cd573373ffffffffffffffffffffffffffffffffffffffff16600b60006001846109639190613802565b815260200190815260200160002060020160009054906101000a900473ffffffffffffffffffffffffffffffffffffffff1673ffffffffffffffffffffffffffffffffffffffff16036109c0576001836109bd9190613802565b92505b8080600101915050610933565b5060008267ffffffffffffffff8111156109ea576109e961332b565b5b604051908082528060200260200182016040528015610a2357816020015b610a10612df6565b815260200190600190039081610a085790505b50905060005b84811015610bf2573373ffffffffffffffffffffffffffffffffffffffff16600b6000600184610a599190613802565b815260200190815260200160002060020160009054906101000a900473ffffffffffffffffffffffffffffffffffffffff1673ffffffffffffffffffffffffffffffffffffffff1603610be5576000600182610ab59190613802565b90506000600b60008381526020019081526020016000209050806040518060a0016040529081600082015481526020016001820160009054906101000a900473ffffffffffffffffffffffffffffffffffffffff1673ffffffffffffffffffffffffffffffffffffffff1673ffffffffffffffffffffffffffffffffffffffff1681526020016002820160009054906101000a900473ffffffffffffffffffffffffffffffffffffffff1673ffffffffffffffffffffffffffffffffffffffff1673ffffffffffffffffffffffffffffffffffffffff168152602001600382015481526020016004820160009054906101000a900460ff161515151581525050848681518110610bc857610bc7613836565b5b6020026020010181905250600185610be09190613802565b945050505b8080600101915050610a29565b508094505050505090565b600073ffffffffffffffffffffffffffffffffffffffff168273ffffffffffffffffffffffffffffffffffffffff1603610c6f5760006040517f64a0ae92000000000000000000000000000000000000000000000000000000008152600401610c669190613078565b60405180910390fd5b6000610c838383610c7e611d4b565b611d65565b90508373ffffffffffffffffffffffffffffffffffffffff168173ffffffffffffffffffffffffffffffffffffffff1614610cf9578382826040517f64283d7b000000000000000000000000000000000000000000000000000000008152600401610cf093929190613865565b60405180910390fd5b50505050565b610d1a83838360405180602001604052806000815250611275565b505050565b60606000600754905060008060005b83811015610dc8573373ffffffffffffffffffffffffffffffffffffffff16600b6000600184610d5e9190613802565b815260200190815260200160002060010160009054906101000a900473ffffffffffffffffffffffffffffffffffffffff1673ffffffffffffffffffffffffffffffffffffffff1603610dbb57600183610db89190613802565b92505b8080600101915050610d2e565b5060008267ffffffffffffffff811115610de557610de461332b565b5b604051908082528060200260200182016040528015610e1e57816020015b610e0b612df6565b815260200190600190039081610e035790505b50905060005b84811015610fed573373ffffffffffffffffffffffffffffffffffffffff16600b6000600184610e549190613802565b815260200190815260200160002060010160009054906101000a900473ffffffffffffffffffffffffffffffffffffffff1673ffffffffffffffffffffffffffffffffffffffff1603610fe0576000600182610eb09190613802565b90506000600b60008381526020019081526020016000209050806040518060a0016040529081600082015481526020016001820160009054906101000a900473ffffffffffffffffffffffffffffffffffffffff1673ffffffffffffffffffffffffffffffffffffffff1673ffffffffffffffffffffffffffffffffffffffff1681526020016002820160009054906101000a900473ffffffffffffffffffffffffffffffffffffffff1673ffffffffffffffffffffffffffffffffffffffff1673ffffffffffffffffffffffffffffffffffffffff168152602001600382015481526020016004820160009054906101000a900460ff161515151581525050848681518110610fc357610fc2613836565b5b6020026020010181905250600185610fdb9190613802565b945050505b8080600101915050610e24565b508094505050505090565b600061100382611c86565b9050919050565b60008073ffffffffffffffffffffffffffffffffffffffff168273ffffffffffffffffffffffffffffffffffffffff160361107d5760006040517f89c62b640000000000000000000000000000000000000000000000000000000081526004016110749190613078565b60405180910390fd5b600360008373ffffffffffffffffffffffffffffffffffffffff1673ffffffffffffffffffffffffffffffffffffffff168152602001908152602001600020549050919050565b6000600760008154809291906110d99061389c565b9190505550600060075490506110ef3382611f7f565b6110f98185612078565b61110381846120d4565b8091505092915050565b600a60009054906101000a900473ffffffffffffffffffffffffffffffffffffffff1681565b6060600180546111429061376e565b80601f016020809104026020016040519081016040528092919081815260200182805461116e9061376e565b80156111bb5780601f10611190576101008083540402835291602001916111bb565b820191906000526020600020905b81548152906001019060200180831161119e57829003601f168201915b5050505050905090565b6111d76111d0611d4b565b83836122d7565b5050565b3373ffffffffffffffffffffffffffffffffffffffff16600a60009054906101000a900473ffffffffffffffffffffffffffffffffffffffff1673ffffffffffffffffffffffffffffffffffffffff161461126b576040517f08c379a000000000000000000000000000000000000000000000000000000000815260040161126290613956565b60405180910390fd5b8060098190555050565b611280848484610bfd565b61129461128b611d4b565b85858585612446565b50505050565b6000600b60008381526020019081526020016000206003015490508034146112f7576040517f08c379a00000000000000000000000000000000000000000000000000000000081526004016112ee906139e8565b60405180910390fd5b33600b600084815260200190815260200160002060020160006101000a81548173ffffffffffffffffffffffffffffffffffffffff021916908373ffffffffffffffffffffffffffffffffffffffff1602179055506001600b600084815260200190815260200160002060040160006101000a81548160ff0219169083151502179055506000600b600084815260200190815260200160002060010160006101000a81548173ffffffffffffffffffffffffffffffffffffffff021916908373ffffffffffffffffffffffffffffffffffffffff160217905550600860008154809291906113e49061389c565b91905055506113f43033846125f7565b600a60009054906101000a900473ffffffffffffffffffffffffffffffffffffffff1673ffffffffffffffffffffffffffffffffffffffff166108fc6009549081150290604051600060405180830381858888f1935050505015801561145e573d6000803e3d6000fd5b50600b600083815260200190815260200160002060010160009054906101000a900473ffffffffffffffffffffffffffffffffffffffff1673ffffffffffffffffffffffffffffffffffffffff166108fc349081150290604051600060405180830381858888f193505050501580156114db573d6000803e3d6000fd5b50817fa7a2a178d9689a98c568872e2b75a7bac0cb0b4398d04fe8456750154dc607db3383600b600087815260200190815260200160002060010160009054906101000a900473ffffffffffffffffffffffffffffffffffffffff16600b600088815260200190815260200160002060020160009054906101000a900473ffffffffffffffffffffffffffffffffffffffff1660405161157e9493929190613a67565b60405180910390a25050565b606061159582611c86565b5060006006600084815260200190815260200160002080546115b69061376e565b80601f01602080910402602001604051908101604052809291908181526020018280546115e29061376e565b801561162f5780601f106116045761010080835404028352916020019161162f565b820191906000526020600020905b81548152906001019060200180831161161257829003601f168201915b505050505090506000611640612764565b90506000815103611655578192505050611698565b60008251111561168a578082604051602001611672929190613ae8565b60405160208183030381529060405292505050611698565b6116938461277b565b925050505b919050565b60606000600754905060008167ffffffffffffffff8111156116c2576116c161332b565b5b6040519080825280602002602001820160405280156116fb57816020015b6116e8612df6565b8152602001906001900390816116e05790505b50905060005b828110156118455760006001826117189190613802565b90506000600b60008381526020019081526020016000209050806040518060a0016040529081600082015481526020016001820160009054906101000a900473ffffffffffffffffffffffffffffffffffffffff1673ffffffffffffffffffffffffffffffffffffffff1673ffffffffffffffffffffffffffffffffffffffff1681526020016002820160009054906101000a900473ffffffffffffffffffffffffffffffffffffffff1673ffffffffffffffffffffffffffffffffffffffff1673ffffffffffffffffffffffffffffffffffffffff168152602001600382015481526020016004820160009054906101000a900460ff16151515158152505084848151811061182b5761182a613836565b5b602002602001018190525050508080600101915050611701565b50809250505090565b3373ffffffffffffffffffffffffffffffffffffffff16600b600084815260200190815260200160002060020160009054906101000a900473ffffffffffffffffffffffffffffffffffffffff1673ffffffffffffffffffffffffffffffffffffffff16146118f2576040517f08c379a00000000000000000000000000000000000000000000000000000000081526004016118e990613b7e565b60405180910390fd5b6009543414611936576040517f08c379a000000000000000000000000000000000000000000000000000000000815260040161192d90613c10565b60405180910390fd5b6000600b600084815260200190815260200160002060040160006101000a81548160ff02191690831515021790555080600b60008481526020019081526020016000206003018190555033600b600084815260200190815260200160002060010160006101000a81548173ffffffffffffffffffffffffffffffffffffffff021916908373ffffffffffffffffffffffffffffffffffffffff16021790555030600b600084815260200190815260200160002060020160006101000a81548173ffffffffffffffffffffffffffffffffffffffff021916908373ffffffffffffffffffffffffffffffffffffffff16021790555060086000815480929190611a3d90613c30565b9190505550611a4d3330846125f7565b817ff9cd90294ca67b7d8fe1a44edb8edde3c183f9abac846e884405ea1151523de3333084604051611a8193929190613c59565b60405180910390a25050565b600b6020528060005260406000206000915090508060000154908060010160009054906101000a900473ffffffffffffffffffffffffffffffffffffffff16908060020160009054906101000a900473ffffffffffffffffffffffffffffffffffffffff16908060030154908060040160009054906101000a900460ff16905085565b6000600560008473ffffffffffffffffffffffffffffffffffffffff1673ffffffffffffffffffffffffffffffffffffffff16815260200190815260200160002060008373ffffffffffffffffffffffffffffffffffffffff1673ffffffffffffffffffffffffffffffffffffffff16815260200190815260200160002060009054906101000a900460ff16905092915050565b60007f80ac58cd000000000000000000000000000000000000000000000000000000007bffffffffffffffffffffffffffffffffffffffffffffffffffffffff1916827bffffffffffffffffffffffffffffffffffffffffffffffffffffffff19161480611c6f57507f5b5e139f000000000000000000000000000000000000000000000000000000007bffffffffffffffffffffffffffffffffffffffffffffffffffffffff1916827bffffffffffffffffffffffffffffffffffffffffffffffffffffffff1916145b80611c7f5750611c7e826127e4565b5b9050919050565b600080611c928361284e565b9050600073ffffffffffffffffffffffffffffffffffffffff168173ffffffffffffffffffffffffffffffffffffffff1603611d0557826040517f7e273289000000000000000000000000000000000000000000000000000000008152600401611cfc9190613286565b60405180910390fd5b80915050919050565b60006004600083815260200190815260200160002060009054906101000a900473ffffffffffffffffffffffffffffffffffffffff169050919050565b600033905090565b611d60838383600161288b565b505050565b600080611d718461284e565b9050600073ffffffffffffffffffffffffffffffffffffffff168373ffffffffffffffffffffffffffffffffffffffff1614611db357611db2818486612a50565b5b600073ffffffffffffffffffffffffffffffffffffffff168173ffffffffffffffffffffffffffffffffffffffff1614611e4457611df560008560008061288b565b6001600360008373ffffffffffffffffffffffffffffffffffffffff1673ffffffffffffffffffffffffffffffffffffffff168152602001908152602001600020600082825403925050819055505b600073ffffffffffffffffffffffffffffffffffffffff168573ffffffffffffffffffffffffffffffffffffffff1614611ec7576001600360008773ffffffffffffffffffffffffffffffffffffffff1673ffffffffffffffffffffffffffffffffffffffff168152602001908152602001600020600082825401925050819055505b846002600086815260200190815260200160002060006101000a81548173ffffffffffffffffffffffffffffffffffffffff021916908373ffffffffffffffffffffffffffffffffffffffff160217905550838573ffffffffffffffffffffffffffffffffffffffff168273ffffffffffffffffffffffffffffffffffffffff167fddf252ad1be2c89b69c2b068fc378daa952ba7f163c4a11628f55a4df523b3ef60405160405180910390a4809150509392505050565b600073ffffffffffffffffffffffffffffffffffffffff168273ffffffffffffffffffffffffffffffffffffffff1603611ff15760006040517f64a0ae92000000000000000000000000000000000000000000000000000000008152600401611fe89190613078565b60405180910390fd5b6000611fff83836000611d65565b9050600073ffffffffffffffffffffffffffffffffffffffff168173ffffffffffffffffffffffffffffffffffffffff16146120735760006040517f73c6ac6e00000000000000000000000000000000000000000000000000000000815260040161206a9190613078565b60405180910390fd5b505050565b806006600084815260200190815260200160002090816120989190613e32565b507ff8e1a15aba9398e019f0b49df1a4fde98ee17ae345cb5f6b5e2c27f5033e8ce7826040516120c89190613286565b60405180910390a15050565b60008111612117576040517f08c379a000000000000000000000000000000000000000000000000000000000815260040161210e90613f50565b60405180910390fd5b600954341461215b576040517f08c379a000000000000000000000000000000000000000000000000000000000815260040161215290613c10565b60405180910390fd5b6040518060a001604052808381526020013373ffffffffffffffffffffffffffffffffffffffff1681526020013073ffffffffffffffffffffffffffffffffffffffff16815260200182815260200160001515815250600b60008481526020019081526020016000206000820151816000015560208201518160010160006101000a81548173ffffffffffffffffffffffffffffffffffffffff021916908373ffffffffffffffffffffffffffffffffffffffff16021790555060408201518160020160006101000a81548173ffffffffffffffffffffffffffffffffffffffff021916908373ffffffffffffffffffffffffffffffffffffffff1602179055506060820151816003015560808201518160040160006101000a81548160ff0219169083151502179055509050506122943330846125f7565b817fb640004f1d14576d0c209e240cad0410e0d8c0c33a09375861fbadae2588a98d33308460006040516122cb9493929190613f70565b60405180910390a25050565b600073ffffffffffffffffffffffffffffffffffffffff168273ffffffffffffffffffffffffffffffffffffffff160361234857816040517f5b08ba1800000000000000000000000000000000000000000000000000000000815260040161233f9190613078565b60405180910390fd5b80600560008573ffffffffffffffffffffffffffffffffffffffff1673ffffffffffffffffffffffffffffffffffffffff16815260200190815260200160002060008473ffffffffffffffffffffffffffffffffffffffff1673ffffffffffffffffffffffffffffffffffffffff16815260200190815260200160002060006101000a81548160ff0219169083151502179055508173ffffffffffffffffffffffffffffffffffffffff168373ffffffffffffffffffffffffffffffffffffffff167f17307eab39ab6107e8899845ad3d59bd9653f200f220920489ca2b5937696c31836040516124399190612f07565b60405180910390a3505050565b60008373ffffffffffffffffffffffffffffffffffffffff163b11156125f0578273ffffffffffffffffffffffffffffffffffffffff1663150b7a02868685856040518563ffffffff1660e01b81526004016124a5949392919061400a565b6020604051808303816000875af19250505080156124e157506040513d601f19601f820116820180604052508101906124de919061406b565b60015b612565573d8060008114612511576040519150601f19603f3d011682016040523d82523d6000602084013e612516565b606091505b50600081510361255d57836040517f64a0ae920000000000000000000000000000000000000000000000000000000081526004016125549190613078565b60405180910390fd5b805181602001fd5b63150b7a0260e01b7bffffffffffffffffffffffffffffffffffffffffffffffffffffffff1916817bffffffffffffffffffffffffffffffffffffffffffffffffffffffff1916146125ee57836040517f64a0ae920000000000000000000000000000000000000000000000000000000081526004016125e59190613078565b60405180910390fd5b505b5050505050565b600073ffffffffffffffffffffffffffffffffffffffff168273ffffffffffffffffffffffffffffffffffffffff16036126695760006040517f64a0ae920000000000000000000000000000000000000000000000000000000081526004016126609190613078565b60405180910390fd5b600061267783836000611d65565b9050600073ffffffffffffffffffffffffffffffffffffffff168173ffffffffffffffffffffffffffffffffffffffff16036126ea57816040517f7e2732890000000000000000000000000000000000000000000000000000000081526004016126e19190613286565b60405180910390fd5b8373ffffffffffffffffffffffffffffffffffffffff168173ffffffffffffffffffffffffffffffffffffffff161461275e578382826040517f64283d7b00000000000000000000000000000000000000000000000000000000815260040161275593929190613865565b60405180910390fd5b50505050565b606060405180602001604052806000815250905090565b606061278682611c86565b506000612791612764565b905060008151116127b157604051806020016040528060008152506127dc565b806127bb84612b14565b6040516020016127cc929190613ae8565b6040516020818303038152906040525b915050919050565b60007f01ffc9a7000000000000000000000000000000000000000000000000000000007bffffffffffffffffffffffffffffffffffffffffffffffffffffffff1916827bffffffffffffffffffffffffffffffffffffffffffffffffffffffff1916149050919050565b60006002600083815260200190815260200160002060009054906101000a900473ffffffffffffffffffffffffffffffffffffffff169050919050565b80806128c45750600073ffffffffffffffffffffffffffffffffffffffff168273ffffffffffffffffffffffffffffffffffffffff1614155b156129f85760006128d484611c86565b9050600073ffffffffffffffffffffffffffffffffffffffff168373ffffffffffffffffffffffffffffffffffffffff161415801561293f57508273ffffffffffffffffffffffffffffffffffffffff168173ffffffffffffffffffffffffffffffffffffffff1614155b801561295257506129508184611b10565b155b1561299457826040517fa9fbf51f00000000000000000000000000000000000000000000000000000000815260040161298b9190613078565b60405180910390fd5b81156129f657838573ffffffffffffffffffffffffffffffffffffffff168273ffffffffffffffffffffffffffffffffffffffff167f8c5be1e5ebec7d5bd14f71427d1e84f3dd0314c0f7b2291e5b200ac8c7c3b92560405160405180910390a45b505b836004600085815260200190815260200160002060006101000a81548173ffffffffffffffffffffffffffffffffffffffff021916908373ffffffffffffffffffffffffffffffffffffffff16021790555050505050565b612a5b838383612be2565b612b0f57600073ffffffffffffffffffffffffffffffffffffffff168373ffffffffffffffffffffffffffffffffffffffff1603612ad057806040517f7e273289000000000000000000000000000000000000000000000000000000008152600401612ac79190613286565b60405180910390fd5b81816040517f177e802f000000000000000000000000000000000000000000000000000000008152600401612b06929190614098565b60405180910390fd5b505050565b606060006001612b2384612ca3565b01905060008167ffffffffffffffff811115612b4257612b4161332b565b5b6040519080825280601f01601f191660200182016040528015612b745781602001600182028036833780820191505090505b509050600082602001820190505b600115612bd7578080600190039150507f3031323334353637383961626364656600000000000000000000000000000000600a86061a8153600a8581612bcb57612bca6140c1565b5b04945060008503612b82575b819350505050919050565b60008073ffffffffffffffffffffffffffffffffffffffff168373ffffffffffffffffffffffffffffffffffffffff1614158015612c9a57508273ffffffffffffffffffffffffffffffffffffffff168473ffffffffffffffffffffffffffffffffffffffff161480612c5b5750612c5a8484611b10565b5b80612c9957508273ffffffffffffffffffffffffffffffffffffffff16612c8183611d0e565b73ffffffffffffffffffffffffffffffffffffffff16145b5b90509392505050565b600080600090507a184f03e93ff9f4daa797ed6e38ed64bf6a1f0100000000000000008310612d01577a184f03e93ff9f4daa797ed6e38ed64bf6a1f0100000000000000008381612cf757612cf66140c1565b5b0492506040810190505b6d04ee2d6d415b85acef81000000008310612d3e576d04ee2d6d415b85acef81000000008381612d3457612d336140c1565b5b0492506020810190505b662386f26fc100008310612d6d57662386f26fc100008381612d6357612d626140c1565b5b0492506010810190505b6305f5e1008310612d96576305f5e1008381612d8c57612d8b6140c1565b5b0492506008810190505b6127108310612dbb576127108381612db157612db06140c1565b5b0492506004810190505b60648310612dde5760648381612dd457612dd36140c1565b5b0492506002810190505b600a8310612ded576001810190505b80915050919050565b6040518060a0016040528060008152602001600073ffffffffffffffffffffffffffffffffffffffff168152602001600073ffffffffffffffffffffffffffffffffffffffff168152602001600081526020016000151581525090565b6000604051905090565b600080fd5b600080fd5b60007fffffffff0000000000000000000000000000000000000000000000000000000082169050919050565b612e9c81612e67565b8114612ea757600080fd5b50565b600081359050612eb981612e93565b92915050565b600060208284031215612ed557612ed4612e5d565b5b6000612ee384828501612eaa565b91505092915050565b60008115159050919050565b612f0181612eec565b82525050565b6000602082019050612f1c6000830184612ef8565b92915050565b600081519050919050565b600082825260208201905092915050565b60005b83811015612f5c578082015181840152602081019050612f41565b60008484015250505050565b6000601f19601f8301169050919050565b6000612f8482612f22565b612f8e8185612f2d565b9350612f9e818560208601612f3e565b612fa781612f68565b840191505092915050565b60006020820190508181036000830152612fcc8184612f79565b905092915050565b6000819050919050565b612fe781612fd4565b8114612ff257600080fd5b50565b60008135905061300481612fde565b92915050565b6000602082840312156130205761301f612e5d565b5b600061302e84828501612ff5565b91505092915050565b600073ffffffffffffffffffffffffffffffffffffffff82169050919050565b600061306282613037565b9050919050565b61307281613057565b82525050565b600060208201905061308d6000830184613069565b92915050565b61309c81613057565b81146130a757600080fd5b50565b6000813590506130b981613093565b92915050565b600080604083850312156130d6576130d5612e5d565b5b60006130e4858286016130aa565b92505060206130f585828601612ff5565b9150509250929050565b600081519050919050565b600082825260208201905092915050565b6000819050602082019050919050565b61313481612fd4565b82525050565b600061314582613037565b9050919050565b6131558161313a565b82525050565b61316481612eec565b82525050565b60a082016000820151613180600085018261312b565b506020820151613193602085018261314c565b5060408201516131a6604085018261314c565b5060608201516131b9606085018261312b565b5060808201516131cc608085018261315b565b50505050565b60006131de838361316a565b60a08301905092915050565b6000602082019050919050565b6000613202826130ff565b61320c818561310a565b93506132178361311b565b8060005b8381101561324857815161322f88826131d2565b975061323a836131ea565b92505060018101905061321b565b5085935050505092915050565b6000602082019050818103600083015261326f81846131f7565b905092915050565b61328081612fd4565b82525050565b600060208201905061329b6000830184613277565b92915050565b6000806000606084860312156132ba576132b9612e5d565b5b60006132c8868287016130aa565b93505060206132d9868287016130aa565b92505060406132ea86828701612ff5565b9150509250925092565b60006020828403121561330a57613309612e5d565b5b6000613318848285016130aa565b91505092915050565b600080fd5b600080fd5b7f4e487b7100000000000000000000000000000000000000000000000000000000600052604160045260246000fd5b61336382612f68565b810181811067ffffffffffffffff821117156133825761338161332b565b5b80604052505050565b6000613395612e53565b90506133a1828261335a565b919050565b600067ffffffffffffffff8211156133c1576133c061332b565b5b6133ca82612f68565b9050602081019050919050565b82818337600083830152505050565b60006133f96133f4846133a6565b61338b565b90508281526020810184848401111561341557613414613326565b5b6134208482856133d7565b509392505050565b600082601f83011261343d5761343c613321565b5b813561344d8482602086016133e6565b91505092915050565b6000806040838503121561346d5761346c612e5d565b5b600083013567ffffffffffffffff81111561348b5761348a612e62565b5b61349785828601613428565b92505060206134a885828601612ff5565b9150509250929050565b6134bb8161313a565b82525050565b60006020820190506134d660008301846134b2565b92915050565b6134e581612eec565b81146134f057600080fd5b50565b600081359050613502816134dc565b92915050565b6000806040838503121561351f5761351e612e5d565b5b600061352d858286016130aa565b925050602061353e858286016134f3565b9150509250929050565b600067ffffffffffffffff8211156135635761356261332b565b5b61356c82612f68565b9050602081019050919050565b600061358c61358784613548565b61338b565b9050828152602081018484840111156135a8576135a7613326565b5b6135b38482856133d7565b509392505050565b600082601f8301126135d0576135cf613321565b5b81356135e0848260208601613579565b91505092915050565b6000806000806080858703121561360357613602612e5d565b5b6000613611878288016130aa565b9450506020613622878288016130aa565b935050604061363387828801612ff5565b925050606085013567ffffffffffffffff81111561365457613653612e62565b5b613660878288016135bb565b91505092959194509250565b6000806040838503121561368357613682612e5d565b5b600061369185828601612ff5565b92505060206136a285828601612ff5565b9150509250929050565b600060a0820190506136c16000830188613277565b6136ce60208301876134b2565b6136db60408301866134b2565b6136e86060830185613277565b6136f56080830184612ef8565b9695505050505050565b6000806040838503121561371657613715612e5d565b5b6000613724858286016130aa565b9250506020613735858286016130aa565b9150509250929050565b7f4e487b7100000000000000000000000000000000000000000000000000000000600052602260045260246000fd5b6000600282049050600182168061378657607f821691505b6020821081036137995761379861373f565b5b50919050565b7f4e487b7100000000000000000000000000000000000000000000000000000000600052601160045260246000fd5b60006137d982612fd4565b91506137e483612fd4565b92508282039050818111156137fc576137fb61379f565b5b92915050565b600061380d82612fd4565b915061381883612fd4565b92508282019050808211156138305761382f61379f565b5b92915050565b7f4e487b7100000000000000000000000000000000000000000000000000000000600052603260045260246000fd5b600060608201905061387a6000830186613069565b6138876020830185613277565b6138946040830184613069565b949350505050565b60006138a782612fd4565b91507fffffffffffffffffffffffffffffffffffffffffffffffffffffffffffffffff82036138d9576138d861379f565b5b600182019050919050565b7f4f6e6c79206d61726b6574706c616365206f776e65722063616e20757064617460008201527f6520746865206c697374696e6720707269636500000000000000000000000000602082015250565b6000613940603383612f2d565b915061394b826138e4565b604082019050919050565b6000602082019050818103600083015261396f81613933565b9050919050565b7f506c65617365207375626d6974207468652061736b696e67207072696365206960008201527f6e206f7264657220746f20636f6d706c65746520746865207075726368617365602082015250565b60006139d2604083612f2d565b91506139dd82613976565b604082019050919050565b60006020820190508181036000830152613a01816139c5565b9050919050565b6000819050919050565b6000613a2d613a28613a2384613037565b613a08565b613037565b9050919050565b6000613a3f82613a12565b9050919050565b6000613a5182613a34565b9050919050565b613a6181613a46565b82525050565b6000608082019050613a7c6000830187613069565b613a896020830186613277565b613a966040830185613a58565b613aa36060830184613a58565b95945050505050565b600081905092915050565b6000613ac282612f22565b613acc8185613aac565b9350613adc818560208601612f3e565b80840191505092915050565b6000613af48285613ab7565b9150613b008284613ab7565b91508190509392505050565b7f4f6e6c79206974656d206f776e65722063616e20706572666f726d207468697360008201527f206f7065726174696f6e00000000000000000000000000000000000000000000602082015250565b6000613b68602a83612f2d565b9150613b7382613b0c565b604082019050919050565b60006020820190508181036000830152613b9781613b5b565b9050919050565b7f5072696365206d75737420626520657175616c20746f206c697374696e67207060008201527f7269636500000000000000000000000000000000000000000000000000000000602082015250565b6000613bfa602483612f2d565b9150613c0582613b9e565b604082019050919050565b60006020820190508181036000830152613c2981613bed565b9050919050565b6000613c3b82612fd4565b915060008203613c4e57613c4d61379f565b5b600182039050919050565b6000606082019050613c6e6000830186613069565b613c7b6020830185613069565b613c886040830184613277565b949350505050565b60008190508160005260206000209050919050565b60006020601f8301049050919050565b600082821b905092915050565b600060088302613cf27fffffffffffffffffffffffffffffffffffffffffffffffffffffffffffffffff82613cb5565b613cfc8683613cb5565b95508019841693508086168417925050509392505050565b6000613d2f613d2a613d2584612fd4565b613a08565b612fd4565b9050919050565b6000819050919050565b613d4983613d14565b613d5d613d5582613d36565b848454613cc2565b825550505050565b600090565b613d72613d65565b613d7d818484613d40565b505050565b5b81811015613da157613d96600082613d6a565b600181019050613d83565b5050565b601f821115613de657613db781613c90565b613dc084613ca5565b81016020851015613dcf578190505b613de3613ddb85613ca5565b830182613d82565b50505b505050565b600082821c905092915050565b6000613e0960001984600802613deb565b1980831691505092915050565b6000613e228383613df8565b9150826002028217905092915050565b613e3b82612f22565b67ffffffffffffffff811115613e5457613e5361332b565b5b613e5e825461376e565b613e69828285613da5565b600060209050601f831160018114613e9c5760008415613e8a578287015190505b613e948582613e16565b865550613efc565b601f198416613eaa86613c90565b60005b82811015613ed257848901518255600182019150602085019450602081019050613ead565b86831015613eef5784890151613eeb601f891682613df8565b8355505b6001600288020188555050505b505050505050565b7f5072696365206d757374206265206174206c6561737420310000000000000000600082015250565b6000613f3a601883612f2d565b9150613f4582613f04565b602082019050919050565b60006020820190508181036000830152613f6981613f2d565b9050919050565b6000608082019050613f856000830187613069565b613f926020830186613069565b613f9f6040830185613277565b613fac6060830184612ef8565b95945050505050565b600081519050919050565b600082825260208201905092915050565b6000613fdc82613fb5565b613fe68185613fc0565b9350613ff6818560208601612f3e565b613fff81612f68565b840191505092915050565b600060808201905061401f6000830187613069565b61402c6020830186613069565b6140396040830185613277565b818103606083015261404b8184613fd1565b905095945050505050565b60008151905061406581612e93565b92915050565b60006020828403121561408157614080612e5d565b5b600061408f84828501614056565b91505092915050565b60006040820190506140ad6000830185613069565b6140ba6020830184613277565b9392505050565b7f4e487b7100000000000000000000000000000000000000000000000000000000600052601260045260246000fdfea2646970667358221220238d5b3b1c083017fef6d083b5c580da3dd543bdb3c400ced2a2077bbb5863b764736f6c634300081c0033",
  "linkReferences": {},
  "deployedLinkReferences": {}
}